{
  "_format": "hh-sol-artifact-1",
  "contractName": "Staking",
  "sourceName": "contracts/Staking.sol",
  "abi": [
    {
      "inputs": [
        {
          "internalType": "address",
          "name": "_stakingToken",
          "type": "address"
        },
        {
          "internalType": "address",
          "name": "_rewardToken",
          "type": "address"
        }
      ],
      "stateMutability": "nonpayable",
      "type": "constructor"
    },
    {
      "inputs": [
        {
          "internalType": "address",
          "name": "",
          "type": "address"
        }
      ],
      "name": "balanceOf",
      "outputs": [
        {
          "internalType": "uint256",
          "name": "",
          "type": "uint256"
        }
      ],
      "stateMutability": "view",
      "type": "function"
    },
    {
      "inputs": [],
      "name": "duration",
      "outputs": [
        {
          "internalType": "uint256",
          "name": "",
          "type": "uint256"
        }
      ],
      "stateMutability": "view",
      "type": "function"
    },
    {
      "inputs": [
        {
          "internalType": "address",
          "name": "_account",
          "type": "address"
        }
      ],
      "name": "earned",
      "outputs": [
        {
          "internalType": "uint256",
          "name": "",
          "type": "uint256"
        }
      ],
      "stateMutability": "view",
      "type": "function"
    },
    {
      "inputs": [],
      "name": "finishAt",
      "outputs": [
        {
          "internalType": "uint256",
          "name": "",
          "type": "uint256"
        }
      ],
      "stateMutability": "view",
      "type": "function"
    },
    {
      "inputs": [],
      "name": "getReward",
      "outputs": [],
      "stateMutability": "nonpayable",
      "type": "function"
    },
    {
      "inputs": [
        {
          "internalType": "uint256",
          "name": "_amount",
          "type": "uint256"
        }
      ],
      "name": "notifyRewardAmount",
      "outputs": [],
      "stateMutability": "nonpayable",
      "type": "function"
    },
    {
      "inputs": [],
      "name": "owner",
      "outputs": [
        {
          "internalType": "address",
          "name": "",
          "type": "address"
        }
      ],
      "stateMutability": "view",
      "type": "function"
    },
    {
      "inputs": [],
      "name": "rewardPerToken",
      "outputs": [
        {
          "internalType": "uint256",
          "name": "",
          "type": "uint256"
        }
      ],
      "stateMutability": "view",
      "type": "function"
    },
    {
      "inputs": [],
      "name": "rewardPerTokenStored",
      "outputs": [
        {
          "internalType": "uint256",
          "name": "",
          "type": "uint256"
        }
      ],
      "stateMutability": "view",
      "type": "function"
    },
    {
      "inputs": [],
      "name": "rewardRate",
      "outputs": [
        {
          "internalType": "uint256",
          "name": "",
          "type": "uint256"
        }
      ],
      "stateMutability": "view",
      "type": "function"
    },
    {
      "inputs": [
        {
          "internalType": "address",
          "name": "",
          "type": "address"
        }
      ],
      "name": "rewards",
      "outputs": [
        {
          "internalType": "uint256",
          "name": "",
          "type": "uint256"
        }
      ],
      "stateMutability": "view",
      "type": "function"
    },
    {
      "inputs": [],
      "name": "rewardsToken",
      "outputs": [
        {
          "internalType": "contract IERC20",
          "name": "",
          "type": "address"
        }
      ],
      "stateMutability": "view",
      "type": "function"
    },
    {
      "inputs": [
        {
          "internalType": "uint256",
          "name": "_duration",
          "type": "uint256"
        }
      ],
      "name": "setRewardsDuration",
      "outputs": [],
      "stateMutability": "nonpayable",
      "type": "function"
    },
    {
      "inputs": [
        {
          "internalType": "uint256",
          "name": "_amount",
          "type": "uint256"
        }
      ],
      "name": "stake",
      "outputs": [],
      "stateMutability": "nonpayable",
      "type": "function"
    },
    {
      "inputs": [],
      "name": "stakingToken",
      "outputs": [
        {
          "internalType": "contract IERC20",
          "name": "",
          "type": "address"
        }
      ],
      "stateMutability": "view",
      "type": "function"
    },
    {
      "inputs": [],
      "name": "totalSupply",
      "outputs": [
        {
          "internalType": "uint256",
          "name": "",
          "type": "uint256"
        }
      ],
      "stateMutability": "view",
      "type": "function"
    },
    {
      "inputs": [],
      "name": "updatedAt",
      "outputs": [
        {
          "internalType": "uint256",
          "name": "",
          "type": "uint256"
        }
      ],
      "stateMutability": "view",
      "type": "function"
    },
    {
      "inputs": [
        {
          "internalType": "address",
          "name": "",
          "type": "address"
        }
      ],
      "name": "userRewardPerTokenPaid",
      "outputs": [
        {
          "internalType": "uint256",
          "name": "",
          "type": "uint256"
        }
      ],
      "stateMutability": "view",
      "type": "function"
    },
    {
      "inputs": [
        {
          "internalType": "uint256",
          "name": "_amount",
          "type": "uint256"
        }
      ],
      "name": "withdraw",
      "outputs": [],
      "stateMutability": "nonpayable",
      "type": "function"
    }
  ],
  "bytecode": "0x60c06040523480156200001157600080fd5b50604051620018c9380380620018c9833981810160405281019062000037919062000151565b336000806101000a81548173ffffffffffffffffffffffffffffffffffffffff021916908373ffffffffffffffffffffffffffffffffffffffff1602179055508173ffffffffffffffffffffffffffffffffffffffff1660808173ffffffffffffffffffffffffffffffffffffffff16815250508073ffffffffffffffffffffffffffffffffffffffff1660a08173ffffffffffffffffffffffffffffffffffffffff1681525050505062000198565b600080fd5b600073ffffffffffffffffffffffffffffffffffffffff82169050919050565b60006200011982620000ec565b9050919050565b6200012b816200010c565b81146200013757600080fd5b50565b6000815190506200014b8162000120565b92915050565b600080604083850312156200016b576200016a620000e7565b5b60006200017b858286016200013a565b92505060206200018e858286016200013a565b9150509250929050565b60805160a0516116ef620001da6000396000818161090e01528181610b92015261104901526000818161064d01528181610c540152610deb01526116ef6000f3fe608060405234801561001057600080fd5b50600436106101205760003560e01c806372f702f3116100ad578063a694fc3a11610071578063a694fc3a146102f9578063cc1a378f14610315578063cd3daf9d14610331578063d1af0c7d1461034f578063df136d651461036d57610120565b806372f702f3146102515780637519ab501461026f5780637b0a47ee1461028d5780638b876347146102ab5780638da5cb5b146102db57610120565b80632e1a7d4d116100f45780632e1a7d4d146101c15780633c6b16ab146101dd5780633d18b912146101f957806367d3b4881461020357806370a082311461022157610120565b80628cc262146101255780630700037d146101555780630fb5a6b41461018557806318160ddd146101a3575b600080fd5b61013f600480360381019061013a91906110ee565b61038b565b60405161014c9190611134565b60405180910390f35b61016f600480360381019061016a91906110ee565b61048d565b60405161017c9190611134565b60405180910390f35b61018d6104a5565b60405161019a9190611134565b60405180910390f35b6101ab6104ab565b6040516101b89190611134565b60405180910390f35b6101db60048036038101906101d6919061117b565b6104b1565b005b6101f760048036038101906101f2919061117b565b6106ee565b005b610201610a16565b005b61020b610c34565b6040516102189190611134565b60405180910390f35b61023b600480360381019061023691906110ee565b610c3a565b6040516102489190611134565b60405180910390f35b610259610c52565b6040516102669190611207565b60405180910390f35b610277610c76565b6040516102849190611134565b60405180910390f35b610295610c7c565b6040516102a29190611134565b60405180910390f35b6102c560048036038101906102c091906110ee565b610c82565b6040516102d29190611134565b60405180910390f35b6102e3610c9a565b6040516102f09190611231565b60405180910390f35b610313600480360381019061030e919061117b565b610cbe565b005b61032f600480360381019061032a919061117b565b610efd565b005b610339610fd9565b6040516103469190611134565b60405180910390f35b610357611047565b6040516103649190611207565b60405180910390f35b61037561106b565b6040516103829190611134565b60405180910390f35b6000600760008373ffffffffffffffffffffffffffffffffffffffff1673ffffffffffffffffffffffffffffffffffffffff16815260200190815260200160002054670de0b6b3a7640000600660008573ffffffffffffffffffffffffffffffffffffffff1673ffffffffffffffffffffffffffffffffffffffff1681526020019081526020016000205461041e610fd9565b610428919061127b565b600960008673ffffffffffffffffffffffffffffffffffffffff1673ffffffffffffffffffffffffffffffffffffffff1681526020019081526020016000205461047291906112af565b61047c9190611320565b6104869190611351565b9050919050565b60076020528060005260406000206000915090505481565b60015481565b60085481565b336104ba610fd9565b6005819055506104cc60025442611071565b600381905550600073ffffffffffffffffffffffffffffffffffffffff168173ffffffffffffffffffffffffffffffffffffffff16146105995761050f8161038b565b600760008373ffffffffffffffffffffffffffffffffffffffff1673ffffffffffffffffffffffffffffffffffffffff16815260200190815260200160002081905550600554600660008373ffffffffffffffffffffffffffffffffffffffff1673ffffffffffffffffffffffffffffffffffffffff168152602001908152602001600020819055505b600082116105dc576040517f08c379a00000000000000000000000000000000000000000000000000000000081526004016105d3906113e2565b60405180910390fd5b81600960003373ffffffffffffffffffffffffffffffffffffffff1673ffffffffffffffffffffffffffffffffffffffff168152602001908152602001600020600082825461062b919061127b565b925050819055508160086000828254610644919061127b565b925050819055507f000000000000000000000000000000000000000000000000000000000000000073ffffffffffffffffffffffffffffffffffffffff1663a9059cbb33846040518363ffffffff1660e01b81526004016106a6929190611402565b6020604051808303816000875af11580156106c5573d6000803e3d6000fd5b505050506040513d601f19601f820116820180604052508101906106e99190611463565b505050565b60008054906101000a900473ffffffffffffffffffffffffffffffffffffffff1673ffffffffffffffffffffffffffffffffffffffff163373ffffffffffffffffffffffffffffffffffffffff161461077c576040517f08c379a0000000000000000000000000000000000000000000000000000000008152600401610773906114dc565b60405180910390fd5b6000610786610fd9565b60058190555061079860025442611071565b600381905550600073ffffffffffffffffffffffffffffffffffffffff168173ffffffffffffffffffffffffffffffffffffffff1614610865576107db8161038b565b600760008373ffffffffffffffffffffffffffffffffffffffff1673ffffffffffffffffffffffffffffffffffffffff16815260200190815260200160002081905550600554600660008373ffffffffffffffffffffffffffffffffffffffff1673ffffffffffffffffffffffffffffffffffffffff168152602001908152602001600020819055505b6002544210610887576001548261087c9190611320565b6004819055506108c7565b60006004544260025461089a919061127b565b6108a491906112af565b905060015481846108b59190611351565b6108bf9190611320565b600481905550505b60006004541161090c576040517f08c379a000000000000000000000000000000000000000000000000000000000815260040161090390611548565b60405180910390fd5b7f000000000000000000000000000000000000000000000000000000000000000073ffffffffffffffffffffffffffffffffffffffff166370a08231306040518263ffffffff1660e01b81526004016109659190611231565b602060405180830381865afa158015610982573d6000803e3d6000fd5b505050506040513d601f19601f820116820180604052508101906109a6919061157d565b6001546004546109b691906112af565b11156109f7576040517f08c379a00000000000000000000000000000000000000000000000000000000081526004016109ee906115f6565b60405180910390fd5b60015442610a059190611351565b600281905550426003819055505050565b33610a1f610fd9565b600581905550610a3160025442611071565b600381905550600073ffffffffffffffffffffffffffffffffffffffff168173ffffffffffffffffffffffffffffffffffffffff1614610afe57610a748161038b565b600760008373ffffffffffffffffffffffffffffffffffffffff1673ffffffffffffffffffffffffffffffffffffffff16815260200190815260200160002081905550600554600660008373ffffffffffffffffffffffffffffffffffffffff1673ffffffffffffffffffffffffffffffffffffffff168152602001908152602001600020819055505b6000600760003373ffffffffffffffffffffffffffffffffffffffff1673ffffffffffffffffffffffffffffffffffffffff1681526020019081526020016000205490506000811115610c30576000600760003373ffffffffffffffffffffffffffffffffffffffff1673ffffffffffffffffffffffffffffffffffffffff168152602001908152602001600020819055507f000000000000000000000000000000000000000000000000000000000000000073ffffffffffffffffffffffffffffffffffffffff1663a9059cbb33836040518363ffffffff1660e01b8152600401610beb929190611402565b6020604051808303816000875af1158015610c0a573d6000803e3d6000fd5b505050506040513d601f19601f82011682018060405250810190610c2e9190611463565b505b5050565b60025481565b60096020528060005260406000206000915090505481565b7f000000000000000000000000000000000000000000000000000000000000000081565b60035481565b60045481565b60066020528060005260406000206000915090505481565b60008054906101000a900473ffffffffffffffffffffffffffffffffffffffff1681565b33610cc7610fd9565b600581905550610cd960025442611071565b600381905550600073ffffffffffffffffffffffffffffffffffffffff168173ffffffffffffffffffffffffffffffffffffffff1614610da657610d1c8161038b565b600760008373ffffffffffffffffffffffffffffffffffffffff1673ffffffffffffffffffffffffffffffffffffffff16815260200190815260200160002081905550600554600660008373ffffffffffffffffffffffffffffffffffffffff1673ffffffffffffffffffffffffffffffffffffffff168152602001908152602001600020819055505b60008211610de9576040517f08c379a0000000000000000000000000000000000000000000000000000000008152600401610de0906113e2565b60405180910390fd5b7f000000000000000000000000000000000000000000000000000000000000000073ffffffffffffffffffffffffffffffffffffffff166323b872dd3330856040518463ffffffff1660e01b8152600401610e4693929190611616565b6020604051808303816000875af1158015610e65573d6000803e3d6000fd5b505050506040513d601f19601f82011682018060405250810190610e899190611463565b5081600960003373ffffffffffffffffffffffffffffffffffffffff1673ffffffffffffffffffffffffffffffffffffffff1681526020019081526020016000206000828254610ed99190611351565b925050819055508160086000828254610ef29190611351565b925050819055505050565b60008054906101000a900473ffffffffffffffffffffffffffffffffffffffff1673ffffffffffffffffffffffffffffffffffffffff163373ffffffffffffffffffffffffffffffffffffffff1614610f8b576040517f08c379a0000000000000000000000000000000000000000000000000000000008152600401610f82906114dc565b60405180910390fd5b4260025410610fcf576040517f08c379a0000000000000000000000000000000000000000000000000000000008152600401610fc690611699565b60405180910390fd5b8060018190555050565b60008060085403610fee576005549050611044565b600854670de0b6b3a764000060045460035461100c60025442611071565b611016919061127b565b61102091906112af565b61102a91906112af565b6110349190611320565b6005546110419190611351565b90505b90565b7f000000000000000000000000000000000000000000000000000000000000000081565b60055481565b6000818311156110815781611083565b825b905092915050565b600080fd5b600073ffffffffffffffffffffffffffffffffffffffff82169050919050565b60006110bb82611090565b9050919050565b6110cb816110b0565b81146110d657600080fd5b50565b6000813590506110e8816110c2565b92915050565b6000602082840312156111045761110361108b565b5b6000611112848285016110d9565b91505092915050565b6000819050919050565b61112e8161111b565b82525050565b60006020820190506111496000830184611125565b92915050565b6111588161111b565b811461116357600080fd5b50565b6000813590506111758161114f565b92915050565b6000602082840312156111915761119061108b565b5b600061119f84828501611166565b91505092915050565b6000819050919050565b60006111cd6111c86111c384611090565b6111a8565b611090565b9050919050565b60006111df826111b2565b9050919050565b60006111f1826111d4565b9050919050565b611201816111e6565b82525050565b600060208201905061121c60008301846111f8565b92915050565b61122b816110b0565b82525050565b60006020820190506112466000830184611222565b92915050565b7f4e487b7100000000000000000000000000000000000000000000000000000000600052601160045260246000fd5b60006112868261111b565b91506112918361111b565b92508282039050818111156112a9576112a861124c565b5b92915050565b60006112ba8261111b565b91506112c58361111b565b92508282026112d38161111b565b915082820484148315176112ea576112e961124c565b5b5092915050565b7f4e487b7100000000000000000000000000000000000000000000000000000000600052601260045260246000fd5b600061132b8261111b565b91506113368361111b565b925082611346576113456112f1565b5b828204905092915050565b600061135c8261111b565b91506113678361111b565b925082820190508082111561137f5761137e61124c565b5b92915050565b600082825260208201905092915050565b7f616d6f756e74203d203000000000000000000000000000000000000000000000600082015250565b60006113cc600a83611385565b91506113d782611396565b602082019050919050565b600060208201905081810360008301526113fb816113bf565b9050919050565b60006040820190506114176000830185611222565b6114246020830184611125565b9392505050565b60008115159050919050565b6114408161142b565b811461144b57600080fd5b50565b60008151905061145d81611437565b92915050565b6000602082840312156114795761147861108b565b5b60006114878482850161144e565b91505092915050565b7f6e6f7420617574686f72697a6564000000000000000000000000000000000000600082015250565b60006114c6600e83611385565b91506114d182611490565b602082019050919050565b600060208201905081810360008301526114f5816114b9565b9050919050565b7f7265776172642072617465203d20300000000000000000000000000000000000600082015250565b6000611532600f83611385565b915061153d826114fc565b602082019050919050565b6000602082019050818103600083015261156181611525565b9050919050565b6000815190506115778161114f565b92915050565b6000602082840312156115935761159261108b565b5b60006115a184828501611568565b91505092915050565b7f72657761726420616d6f756e74203e2062616c616e6365000000000000000000600082015250565b60006115e0601783611385565b91506115eb826115aa565b602082019050919050565b6000602082019050818103600083015261160f816115d3565b9050919050565b600060608201905061162b6000830186611222565b6116386020830185611222565b6116456040830184611125565b949350505050565b7f726577617264206475726174696f6e206e6f742066696e697368656400000000600082015250565b6000611683601c83611385565b915061168e8261164d565b602082019050919050565b600060208201905081810360008301526116b281611676565b905091905056fea2646970667358221220e9dd88e41ea2c924dffcfc989b814243bc166b4c28acbc2b2a35b94c389c49dc64736f6c63430008120033",
  "linkReferences": {},
  "deployedLinkReferences": {}
}